:020000040800F2
:1000000000000320FD1B0008C5040008C704000809
:10001000C9040008CB040008CD040008000000005B
:10002000000000000000000000000000CF040008F5
:10003000D104000800000000D3040008D504000823
:100040004D1C00084D1C00084D1C00084D1C0008EC
:100050004D1C00084D1C00084D1C00084D1C0008DC
:100060004D1C00084D1C00084D1C00084D1C0008CC
:100070004D1C00084D1C00084D1C00084D1C0008BC
:100080004D1C00084D1C00084D1C00084D1C0008AC
:100090004D1C00084D1C00084D1C00084D1C00089C
:1000A0004D1C00084D1C00084D1C00084D1C00088C
:1000B0004D1C00084D1C00084D1C00084D1C00087C
:1000C0004D1C00084D1C00084D1C00084D1C00086C
:1000D0004D1C00084D1C00084D1C00084D1C00085C
:1000E0004D1C00084D1C00084D1C00084D1C00084C
:1000F0004D1C00084D1C00084D1C00084D1C00083C
:100100004D1C00084D1C00084D1C00084D1C00082B
:100110004D1C00084D1C00084D1C00084D1C00081B
:100120004D1C00084D1C00084D1C00084D1C00080B
:100130004D1C00084D1C00084D1C00084D1C0008FB
:100140004D1C00084D1C00084D1C00084D1C0008EB
:100150004D1C00084D1C00084D1C00084D1C0008DB
:100160004D1C00084D1C00084D1C00084D1C0008CB
:100170004D1C00084D1C00084D1C00084D1C0008BB
:100180004D1C00084D1C00084D1C00084D1C0008AB
:100190004D1C00084D1C00084D1C00084D1C00089B
:0C01A0004D1C00084D1C00084D1C000800
:1001AC0053B94AB9002908BF00281CBF4FF0FF31D2
:1001BC004FF0FF3000F00CB8ADF1080C6DE904CE37
:1001CC0001F06CFDDDF804E0DDE9022304B07047BA
:1001DC00704700BF10B5054C237833B9044B13B1ED
:1001EC000448AFF300800123237010BD0C000020E5
:1001FC0000000000481F000808B5034B1BB1034961
:10020C000348AFF3008008BD000000001000002080
:10021C00481F0008F0B58DB0002407940894099489
:10022C000A940B940194394B1A6B42F004021A6332
:10023C001A6B02F004020192019A02941A6B42F0BA
:10024C0080021A631A6B02F080020292029A0394E3
:10025C001A6B42F001021A631A6B02F0010203924C
:10026C00039A04941A6B42F002021A631A6B02F09E
:10027C0002020492049A05941A6B42F008021A6363
:10028C001A6B02F008020592059A06941A6B42F05A
:10029C0040021A631B6B03F040030693069B1C4F32
:1002AC00224644F28101384600F07CFE194D22466C
:1002BC004021284600F076FE4FF4005307934FF48C
:1002CC0088130893099407A9134800F067FD44F2BA
:1002DC00810307930126089609940A9407A93846C6
:1002EC0000F05CFD40230793089609940A9407A933
:1002FC00284600F053FD802307930894099407A91E
:10030C00284600F04BFD0DB0F0BD00BF0038024098
:10031C0000040240001802400008024072B6FEE7DA
:10032C0010B51448144B0360144B00221A70802132
:10033C005970E1219970DA701A715A7143604FF457
:10034C00000383600E4BC3600E4B036140F2F45309
:10035C00436101F0BFF858B90B4C382200212046FC
:10036C0001F094FC212323604FF44003636110BD22
:10037C00FFF7D4FF800500200080024028000020F9
:10038C0030060020D00600207007002008B50A486F
:10039C000A4B03604FF4E133436000238360C36076
:1003AC0003610C2242618361C36101F07BF900B9E6
:1003BC0008BDFFF7B3FF00BF3C050020004800401C
:1003CC0008B50B484FF0A04303600423436002229E
:1003DC00C2600023036182610122C2610362436235
:1003EC00C262036301F08DF900B908BDFFF796FFF7
:1003FC003000002000B595B03022002108A801F093
:10040C0045FC0023039304930593069307930193F0
:10041C00204A116C41F080511164126C02F0805230
:10042C000192019A02931C4B1A6842F440421A60E2
:10043C001B6803F440430293029B012308934FF47F
:10044C00A023099302230E934FF480020F920422EF
:10045C001092A822119212930723139308A800F06C
:10046C005DF998B90F23039302230493002305939A
:10047C004FF4A05306934FF480530793052103A820
:10048C0000F0B6FB20B915B05DF804FBFFF746FF92
:10049C00FFF744FF003802400070004008B500F040
:1004AC0017FEFFF7A7FFFFF7B5FEFFF739FFFFF7C2
:1004BC006DFFFFF785FFFEE7FEE7FEE7FEE7FEE7D1
:1004CC00FEE770477047704708B500F01BFE08BD8B
:1004DC0082B0002100910B4B5A6C42F480425A645A
:1004EC005A6C02F480420092009A01911A6C42F00C
:1004FC0080521A641B6C03F080530193019B02B071
:10050C00704700BF00380240F0B58DB00023079350
:10051C00089309930A930B9302683D4B9A4201D0BE
:10052C000DB0F0BD00240094A3F590431A6B42F07B
:10053C0000721A631A6B02F000720092009A019416
:10054C001A6B42F080621A631A6B02F0806201929D
:10055C00019A02941A6B42F000621A631A6B02F051
:10056C0000620292029A03941A6B42F004021A631C
:10057C001A6B02F004020392039A04941A6B42F071
:10058C0001021A631A6B02F001020492049A059498
:10059C001A6B42F002021A631A6B02F00202059205
:1005AC00059A06941A6B42F040021A631B6B03F017
:1005BC0040030693069B32230793022708970326D2
:1005CC000A960B250B9507A9124800F0E7FB86232A
:1005DC000793089709940A960B9507A90E4800F003
:1005EC00DDFB4FF400530793089709940A960B957B
:1005FC0007A90A4800F0D2FB4FF420530793089741
:10060C0009940A960B9507A9054800F0C7FB87E7E4
:10061C00008002400008024000000240000402403A
:10062C000018024000B589B000230393049305938E
:10063C00069307930268154B9A4202D009B05DF8F5
:10064C0004FB0021019103F5F8331A6C42F480226B
:10065C001A641A6C02F480220192019A02911A6BAC
:10066C0042F008021A631B6B03F008030293029B0F
:10067C004FF440730393022304930323069307233D
:10068C00079303A9024800F089FBD7E70048004014
:10069C00000C024070B588B00023039304930593BB
:1006AC00069307930368B3F1A04F01D008B070BD57
:1006BC0000250195174C236B43F001032363236B37
:1006CC0003F001030193019B4FF4E85303930223BE
:1006DC000493032306930A2307930F4E03A9304672
:1006EC0000F05CFB4FF4007303930495059503A98C
:1006FC00304600F053FB636B43F080036363029559
:10070C00636C43F480436364636C03F4804302932F
:10071C00029BCBE70038024000000240002800F0AA
:10072C00E08170B582B00446036813F0010F3BD032
:10073C009F4B9B6803F00C03042B2CD09C4B9B68A9
:10074C0003F00C03082B21D06368B3F5803F4FD026
:10075C00B3F5A02F52D0964B1A6822F480321A604F
:10076C001A6822F480221A606368002B50D000F0C3
:10077C00D5FC05468E4B1B6813F4003F14D100F0DA
:10078C00CDFC401B6428F5D90320B1E1884B5B6894
:10079C0013F4800FD8D0864B1B6813F4003F03D0A2
:1007AC006368002B00F09F81236813F0020F54D074
:1007BC007F4B9B6813F00C0F3ED07D4B9B6803F076
:1007CC000C03082B33D0E368002B68D0794B012243
:1007DC001A6000F0A3FC0546754B1B6813F0020F62
:1007EC0054D100F09BFC401B0228F5D903207FE17B
:1007FC006F4A136843F480331360B5E76C4B1A6887
:10080C0042F480221A601A6842F480321A60ABE714
:10081C0000F084FC0546664B1B6813F4003FC3D004
:10082C0000F07CFC401B6428F5D9032060E1604B90
:10083C005B6813F4800FC6D15D4B1B6813F0020F7D
:10084C0003D0E368012B40F05081594A136823F020
:10085C00F803216943EAC1031360236813F0080FFE
:10086C0042D063696BB3534B0122C3F8802E00F066
:10087C0055FC05464E4B5B6F13F0020F34D100F064
:10088C004DFC401B0228F5D9032031E1484A13687E
:10089C0023F0F803216943EAC1031360DDE7454BFC
:1008AC0000221A6000F03AFC0546414B1B6813F01D
:1008BC00020FD2D000F032FC401B0228F5D90320E5
:1008CC0016E13C4B0022C3F8802E00F027FC0546B5
:1008DC00374B5B6F13F0020F06D000F01FFC401B70
:1008EC000228F5D9032003E1236813F0040F77D015
:1008FC002F4B1B6C13F0805F33D1002301932C4BD7
:10090C001A6C42F080521A641B6C03F080530193F2
:10091C00019B0125284B1B6813F4807F23D0A3680F
:10092C00012B34D0052B38D0214B1A6F22F0010249
:10093C001A671A6F22F004021A67A368002B3DD0C5
:10094C0000F0ECFB06461A4B1B6F13F0020F46D15E
:10095C0000F0E4FB801B41F288339842F3D903206A
:10096C00C6E00025D6E7144A136843F4807313607D
:10097C0000F0D4FB0646104B1B6813F4807FCED1DD
:10098C0000F0CCFB801B0228F5D90320B0E0084A0C
:10099C00136F43F001031367CFE7054B1A6F42F057
:1009AC0004021A671A6F42F001021A67C5E700BF0A
:1009BC0000380240000047420070004000F0AEFBDF
:1009CC000646524B1B6F13F0020F08D000F0A6FB2B
:1009DC00801B41F288339842F3D9032088E0EDB9AB
:1009EC00A369002B00F08380484A926802F00C0245
:1009FC00082A51D0022B17D0454B00221A6600F062
:100A0C008DFB0446414B1B6813F0007F42D000F075
:100A1C0085FB001B0228F5D9032069E03B4A136CC7
:100A2C0023F080531364DBE7394B00221A6600F085
:100A3C0075FB0546354B1B6813F0007F06D000F0A4
:100A4C006DFB401B0228F5D9032051E0E369226AB3
:100A5C001343626A43EA8213A26A5208013A43EAD8
:100A6C000243E26A43EA0263284A5360284B01229C
:100A7C001A6600F053FB0446244B1B6813F0007FEE
:100A8C0006D100F04BFB001B0228F5D903202FE008
:100A9C0000202DE000202BE0012B2BD01B4B5B68A2
:100AAC0003F48001E269914226D103F03F02216AEE
:100ABC008A4223D1616A47F6C0721A40B2EB811F99
:100ACC001ED103F44031A26A5208013AB1EB024F35
:100ADC0018D103F07063E26AB3EB026F14D10020FB
:100AEC0006E001207047012002E0012000E0002018
:100AFC0002B070BD0120FBE70120F9E70120F7E708
:100B0C000120F5E70120F3E70120F1E7003802406E
:100B1C000000474208B5334B9B6803F00C03042BD1
:100B2C005BD0082B5BD12F4B5A6802F03F025B68FD
:100B3C0013F4800F2CD02B4B5868C0F388104FEA5D
:100B4C00401CBCEB000C6EEB0E0E4FEA8E1343EA0E
:100B5C009C634FEA8C11B1EB0C0163EB0E03DB00D1
:100B6C0043EA5173C90011EB000C43F10003590225
:100B7C0000234FEA4C2041EADC51FFF711FB194BE3
:100B8C005B68C3F3014301335B00B0FBF3F027E078
:100B9C00144B5868C0F388104FEA401CBCEB000C97
:100BAC006EEB0E0E4FEA8E1343EA9C634FEA8C11E8
:100BBC00B1EB0C0163EB0E03DB0043EA5173C9008C
:100BCC0011EB000C43F10003990200234FEA8C2037
:100BDC0041EA9C51FFF7E4FAD1E7034800E00348EF
:100BEC0008BD00BF0038024000127A000024F40057
:100BFC00002800F09B8070B50D4604464F4B1B68D7
:100C0C0003F00F038B4208D2CBB24C4A137013681B
:100C1C0003F00F038B4240F08B80236813F0020F1C
:100C2C0017D013F0040F04D0454A936843F4E053F3
:100C3C009360236813F0080F04D0414A936843F47F
:100C4C00604393603E4A936823F0F003A1680B4322
:100C5C009360236813F0010F32D06368012B21D00D
:100C6C009A1E012A25D9364A126812F0020F61D059
:100C7C0033498A6822F0030213438B6000F04EFA6A
:100C8C0006462F4B9B6803F00C036268B3EB820F94
:100C9C0016D000F043FA801B41F288339842F0D909
:100CAC00032042E0264A126812F4003FE0D10120F2
:100CBC003BE0234A126812F0007FD9D1012034E0C6
:100CCC001E4B1B6803F00F03AB4207D9EAB21B4B58
:100CDC001A701B6803F00F03AB422DD1236813F07D
:100CEC00040F06D0164A936823F4E053E1680B43D3
:100CFC009360236813F0080F07D0114A936823F40C
:100D0C006043216943EAC1039360FFF703FF0C4B77
:100D1C009B68C3F303130B4AD35CD8400A4B18608F
:100D2C000A4B186800F0AEF9002070BD0120704726
:100D3C000120FAE70120F8E70120F6E7003C024029
:100D4C0000380240681F0008080000200400002042
:100D5C00014B1868704700BF0800002008B5FFF76A
:100D6C00F7FF044B9B68C3F38223034AD35CD84040
:100D7C0008BD00BF00380240601F000808B5FFF72F
:100D8C00E7FF044B9B68C3F34233034AD35CD84060
:100D9C0008BD00BF00380240601F000800230F2B65
:100DAC0000F2F68070B582B066E085684FEA430EBB
:100DBC00032404FA0EF425EA0405CC6804FA0EF4B4
:100DCC002C438460446824EA02044A68C2F300128B
:100DDC009A40224342605DE0DC08083450F824203D
:100DEC0003F00705AD004FF00F0E0EFA05FE22EAD8
:100DFC000E0E0A69AA4042EA0E0240F824205DE079
:100E0C00092200E0002202FA0EF22A430234614D5C
:100E1C0045F82420604A94686FEA0C0224EA0C0519
:100E2C004E6816F4801F01D04CEA04055A4CA5609C
:100E3C00E46802EA04054E6816F4001F01D04CEA7F
:100E4C000405554CE560646802EA04054E6816F426
:100E5C00003F01D04CEA04054F4C656024682240E9
:100E6C004D6815F4803F01D04CEA04024A4C2260D4
:100E7C0001330F2B00F28A8001229A400C6804EA9D
:100E8C00020C32EA0404F3D14C6804F00304013C74
:100E9C00012C8AD94A6802F00302032A09D0C468DB
:100EAC005D000322AA4024EA02048A68AA40224375
:100EBC00C2604A6802F00302022A8DD004684FEA2D
:100ECC00430E032202FA0EF224EA02044A6802F0EC
:100EDC00030202FA0EF2224302604A6812F4403F07
:100EEC00C6D0002201922D4A546C44F480445464C0
:100EFC00526C02F480420192019A9C08A51C254A6E
:100F0C0052F8255003F0030E4FEA8E0E0F2202FA10
:100F1C000EF225EA0205224A90423FF473AF02F525
:100F2C008062904222D002F58062904220D002F57D
:100F3C00806290421ED002F5806290421CD002F575
:100F4C00806290421AD002F58062904218D002F56D
:100F5C008062904216D002F58062904214D002F565
:100F6C00806290423FF44CAF0A224CE701224AE7E0
:100F7C00022248E7032246E7042244E7052242E71F
:100F8C00062240E707223EE708223CE702B070BD8C
:100F9C00704700BF00380140003C0140003802405F
:100FAC00000002400AB181617047090481617047F9
:100FBC00002808DB0901C9B200F1604000F561406E
:100FCC0080F80013704700F00F000901C9B2014B03
:100FDC001954704714ED00E000B500F00700C0F1A3
:100FEC00070CBCF1040F28BF4FF0040C031D062B9B
:100FFC000FD9C31E4FF0FF3E0EFA0CF021EA000190
:10100C0099400EFA03FE22EA0E0241EA02005DF854
:10101C0004FB0023EEE70000074AD36823F4E063E7
:10102C001B041B0C000200F4E060034343F0BF639D
:10103C0043F40033D360704700ED00E010B5044674
:10104C00054BD868C0F30220FFF7C6FF01462046C7
:10105C00FFF7AEFF10BD00BF00ED00E00138B0F1AE
:10106C00807F0BD24FF0E0235861054AF02182F8C3
:10107C0023100020986107221A61704701207047E5
:10108C0000ED00E010B504460E4B1A784FF47A735D
:10109C00B3FBF2F30C4A1068B0FBF3F0FFF7DEFF82
:1010AC0068B90F2C01D901200AE0002221464FF02B
:1010BC00FF30FFF7C3FF054B1C60002000E0012050
:1010CC0010BD00BF0000002008000020040000201C
:1010DC0008B50B4B1A6842F400721A601A6842F495
:1010EC0080621A601A6842F480721A600320FFF75B
:1010FC0093FF0020FFF7C6FFFFF7EAF9002008BDB9
:10110C00003C0240034A1168034B1B780B441360EC
:10111C00704700BFA807002000000020014B186892
:10112C00704700BFA807002038B50446FFF7F6FF4C
:10113C000546B4F1FF3F02D0044B1B781C44FFF76B
:10114C00EDFF401BA042FAD338BD00BF00000020C9
:10115C005079137943EA002307480B50D0789378E1
:10116C001B0443EA0063507843EA002312781343CC
:10117C00024A8B50704700BF4080024044800240BE
:10118C0030B4002208E0C468DC6051F80C3043F441
:10119C00400341F80C300132032A1FD8C16802EB1E
:1011AC0082034FEAC30C01EBC303002441F80C404B
:1011BC005C609C60DC60941D40F8243051F80C405D
:1011CC0044F4801441F80C40022ADCD8541C04EB83
:1011DC008404C56805EBC404DC60D6E70023836295
:1011EC00C268036803F580531A6130BC704700B5C0
:1011FC004FF0000E03E00269DA600EF1010EBEF151
:10120C00030F29D801690EEB8E034FEAC30C01EBD7
:10121C00C303002241F80C205A609A60DA601A620B
:10122C005A624FF0004241F80C2044F2F8525A60D6
:10123C005A6822F000425A600EF1120240F8223035
:10124C00BEF1020FD7D801690EF1010202EB820246
:10125C0001EBC201D960D0E70023C3650366836646
:10126C00C36683650269036803F58053DA605DF831
:10127C0004FB000070B505460C46026813683B4938
:10128C001940237C002B60D14FF40003607C0028B4
:10129C005DD14FF480000343A0680343E07F43EA31
:1012AC00004360690343A07F002852D14FF40050E3
:1012BC000343207F43EA0033A0690343207943EAC8
:1012CC00802394F82000002845D14FF4007003438C
:1012DC00E07B43EAC013606A034394F8280043EAB6
:1012EC0000130B4313602B681E680120FFF71CFFD3
:1012FC002B681E6029688A6922F0BE021204120C47
:10130C00A36C1B0494F84C0038BB80200343206D65
:10131C00034394F85500012821D00020034394F88E
:10132C00560001281DD00020034394F854000128D6
:10133C0019D00020034313438B612B689C69012057
:10134C00FFF7F2FE2B689C6170BD00239EE7002026
:10135C00A1E70020ACE70020B9E70020D6E7082081
:10136C00DCE70420E0E70220E4E700BF0F8120FF68
:10137C0070B505460C46026802F580539B692B49F3
:10138C001940237B002B4DD14FF08063607B43EAE7
:10139C004063607F002847D14FF480100343A07B4B
:1013AC0043EA405360690343207F43EAC013A07FA4
:1013BC0043EA8013206A034394F8240043EA800331
:1013CC000B4302F5805293612B6803F580539E69A1
:1013DC000120FFF7A9FE2B6803F580539E6122794B
:1013EC00A36843EA4263A26913432269134394F846
:1013FC00252043EAC213A26A43EA820322681343FC
:10140C002A6843F4000302F5805213602B6803F53D
:10141C0080531C680120FFF787FE2B6803F580536F
:10142C001C6070BD0023B1E70020B7E7233FDEF856
:10143C0070B5A4B0064601258DF83C508DF83D5092
:10144C0000240D948DF84B408DF84A508DF848408F
:10145C008DF830508DF84C408DF83B4014948DF83D
:10146C0054401D948DF878401F948DF882408DF86F
:10147C0080404FF4804310934FF4006311938DF828
:10148C0081400BA9FFF7F6FE8DF80C508DF80D502E
:10149C008DF81D508DF80E5005948DF81C408DF86C
:1014AC001E4008948DF824508DF804504FF480336E
:1014BC0002934FF4800306934FF4005304938DF87A
:1014CC0025500A94009469463046FFF751FF24B02A
:1014DC0070BD0000002857D030B583B00446D0F85A
:1014EC008430002B34D000230193284B5A6C42F4E7
:1014FC0080425A645B6C03F480430193019B244B40
:10150C005A6822F400025A605A68A1680A435A6069
:10151C005B68236803F580531A6842F001021A6075
:10152C00FFF7FCFD0546236803F580531B6813F099
:10153C00010F13D0FFF7F2FD401BB0F5FA7FF2D983
:10154C000423C4F88830E023C4F88430012019E067
:10155C002323C0F88430FEF7D7FFC4E72046FFF7FB
:10156C0067FF2046FFF70CFE2046FFF740FE62683F
:10157C0000212046FFF7ECFD0020C4F88800102362
:10158C00C4F8843003B030BD0120704700380240ED
:10159C000038014010B504460268136923F4405327
:1015AC00C1680B431361836802691A4343691A4388
:1015BC00C3691A430168CB6823F4164323F00C0368
:1015CC001343CB600268536923F4407381690B4366
:1015DC0053610368314A934206D002F5806293420C
:1015EC0002D0FFF7BBFB01E0FFF7C8FBE369B3F5E3
:1015FC00004F29D00021031849411B1841F100016B
:10160C00C90041EA5371DB00181863684FEA830282
:10161C004FEA937341F10001FEF7C2FD204AA2FB91
:10162C0000314909642303FB11031B013233A2FB74
:10163C0003235B0903F0F00202EB011203F00F032A
:10164C00216813448B6010BD0023021843EB030187
:10165C00121841F10001C90041EA5271D200101870
:10166C0041F10001626892185B41FEF799FD0C4A4A
:10167C00A2FB00314909642303FB1103DB00323365
:10168C00A2FB03235B095A0002F4F87202EB01126D
:10169C0003F00703216813448B60D4E7001001406A
:1016AC001F85EB5158B310B5044690F83D300BB381
:1016BC00242384F83D302268D36823F40053D3608C
:1016CC002046FFF767FF2268136923F490431361E8
:1016DC002268536923F02A0353612268D36843F4C8
:1016EC000053D36000202064202384F83D3084F81C
:1016FC003E3010BD80F83C30FEF794FFD8E7012057
:10170C00704770B58AB0002800F0908005460468D8
:10171C0090F8BD343BB3032385F8BD34E36B13F46D
:10172C00807F01D100232B61286800F0EEF82C4655
:10173C0054F8106BEC460FCCACE80F000FCCACE8B7
:10174C000F0094E803008CE803002B1D0ECB3046F1
:10175C0000F096F8044658B1022385F8BD340124F4
:10176C0020460AB070BD80F8BC34FEF793FFD2E778
:10177C000021286800F000FA234616E003EBC302B0
:10178C0005EB8202012182F83D1082F83C30A2F870
:10179C004430002182F840109164D16403EBC30201
:1017AC0005EB820251650133DBB269688B42E5D3EC
:1017BC0016E004EBC40305EB8303002283F87D22BF
:1017CC0083F87C4283F88022C3F88822C3F88C22E9
:1017DC0004EBC40305EB8303C3F894220134E4B295
:1017EC00A142E6D82C4654F8106BEC460FCCACE872
:1017FC000F000FCCACE80F0094E803008CE803005A
:10180C002B1D0ECB304600F0DDF8044620B1022330
:10181C0085F8BD340124A3E7002385F83830012373
:10182C0085F8BD34286800F095F999E7012497E70D
:10183C0082B000230193019B01330193019A0F4B5A
:10184C009A4215D80369002BF5DA0023019303693A
:10185C0043F001030361019B01330193019A074B90
:10186C009A4208D8036913F0010FF4D1002000E06C
:10187C00032002B070470320FBE700BF400D0300BC
:10188C0084B010B5044603A880E80E00089B012B19
:10189C001FD1A36B23F48033A363E36823F4840385
:1018AC0023F04003E360E36823F44013E3600F9BF1
:1018BC00012B09D02046FFF7BBFF069B012B1BD049
:1018CC00BDE8104004B07047E36843F48013E36054
:1018DC00F0E7E36843F04003E3602046FFF7A8FF1E
:1018EC000C9B23B9A36B43F48033A363E5E7A36B91
:1018FC0023F48033A363E0E7A36843F00603A360FB
:10190C00A36843F02003A360DAE7836823F00103A4
:10191C00836000207047000082B000230193019B7C
:10192C0001330193019A0F4B9A4215D80369002B8E
:10193C00F5DA00230193890141F020010161019B3B
:10194C0001330193019A074B9A4208D8036913F0AB
:10195C00200FF4D1002000E0032002B070470320D8
:10196C00FBE700BF400D030082B000230193019BF5
:10197C0001330193019A0E4B9A4213D80369002B41
:10198C00F5DA0023019310230361019B01330193CA
:10199C00019A074B9A4208D8036913F0100FF4D13F
:1019AC00002000E0032002B070470320FBE700BFDB
:1019BC00400D0300D0F800381943C0F8001800207F
:1019CC007047000084B02DE9F041044607A880E878
:1019DC000E00002306E003F1400204EB820200211A
:1019EC00516001330E2BF6D9119F27BBD4F8043864
:1019FC0043F00203C4F80438A36B43F40013A3634D
:101A0C00A36B23F40023A363A36B23F48023A363AE
:101A1C000023C4F8003E04F50065D4F80038C4F87F
:101A2C0000380C9B012B14D1099B6BB9002120466B
:101A3C00FFF7C0FF11E0A36B23F40013A363A36BA8
:101A4C0043F40023A363E3E701212046FFF7B2FF31
:101A5C0003E003212046FFF7ADFF10212046FFF7DE
:101A6C005BFF804608B14FF001082046FFF77CFF72
:101A7C0008B14FF0010800232B616B61EB610AE0A8
:101A8C00C3B94FF00060C2F8000900220A614FF69A
:101A9C007F328A6001330799994210D904EB4312C3
:101AAC0002F51061D2F800090028E9DB0020C2F829
:101ABC000009EAE74FF09040C2F80009E5E700237F
:101ACC000AE0C3B14FF0904CC2F800CB0022026187
:101ADC004FF67F3282600133994211D904EB4312E5
:101AEC0002F53060D2F8006B002EEADB4FF0000CF0
:101AFC00C2F800CBEAE74FF0006CC2F800CBE5E788
:101B0C002B6923F480732B610023A3616FF0804356
:101B1C0063610A9B1BB9A36943F01003A361A2691B
:101B2C000B4B1343A3610D9B1BB1A36943F008033B
:101B3C00A361012F04D04046BDE8F04104B07047CA
:101B4C00A36943F0804343F00403A361F3E700BFB0
:101B5C0000383C80D0F8003E23F00303C0F8003E70
:101B6C00D0F8043843F00203C0F804380020704762
:101B7C00406900F00100704738B50546C36823F092
:101B8C00C043C360012913D019BBC36843F0804321
:101B9C00C36000240120FFF7C7FA01342846FFF781
:101BAC00E7FF08B1312CF5D9322C14D0002038BD08
:101BBC00C36843F00053C36000240120FFF7B4FA5C
:101BCC0001342846FFF7D4FF0128EDD0312CF4D98D
:101BDC00EAE70120EBE70120E9E70000034AD2F82D
:101BEC00883043F47003C2F88830704700ED00E091
:101BFC00DFF834D00D480E490E4A002302E0D458C9
:101C0C00C4500433C4188C42F9D30B4A0B4C002338
:101C1C0001E013600432A242FBD3FFF7DFFF00F0B8
:101C2C0011F8FEF73BFC7047000003200000002079
:101C3C000C000020881F00080C000020AC070020BE
:101C4C00FEE7000070B50D4D0D4C641BA410002672
:101C5C00A64209D10B4D0C4C00F070F9641BA4107A
:101C6C000026A64205D170BD55F8043B98470136B5
:101C7C00EEE755F8043B98470136F2E7801F000861
:101C8C00801F0008801F0008841F000802440346C0
:101C9C00934200D1704703F8011BF9E72DE9F04797
:101CAC0086468C460846089E154674461946002BF7
:101CBC0040F0C2808542B2FA82F245D94AB1C2F1F3
:101CCC00200300FA02FC2EFA03F3954043EA0C0CB5
:101CDC0094404FEA154EA8B2BCFBFEF8230C0EFB49
:101CEC0018CC08FB00F943EA0C43994528D9EB18AA
:101CFC0008F1FF3704D2994502D9A8F102072B4409
:101D0C00A3EB0903A4B2B3FBFEFC0EFB1C330CFBD0
:101D1C0000F044EA0344A04214D92C190CF1FF330F
:101D2C0004D2A04202D9ACF102032C44241A43EA97
:101D3C0007401EB1D440002334607360BDE8F087C7
:101D4C004746DDE76346F1E792BB431B01214FEAAF
:101D5C00154EAFB2B3FBFEFC200C0EFB1C330CFB80
:101D6C0007F840EA0343984562D9EB180CF1FF30B1
:101D7C0004D2984502D9ACF102002B44A3EB080322
:101D8C00A4B2B3FBFEFC0EFB1C330CFB07F744EABE
:101D9C000344A7424ED92C190CF1FF3304D2A742AD
:101DAC0002D9ACF102032C44E41B43EA0040C0E727
:101DBC00C2F1200320FA03F1954090402EFA03F370
:101DCC0003434FEA154EAFB2B1FBFEFC0EFB1C10E9
:101DDC00190C0CFB07F841EA0041884504FA02F49F
:101DEC0022D969180CF1FF3004D2884502D9ACF124
:101DFC0002002944A1EB08019BB2B1FBFEFC0EFBD7
:101E0C001C110CFB07F743EA01439F420ED9EB1858
:101E1C000CF1FF3104D29F4202D9ACF102012B44E8
:101E2C00DB1B41EA004192E76046E3E76146F7E7D6
:101E3C006046A3E76346B7E7834206D916B900218B
:101E4C0008467BE7C6E900E0F9E7B3FA83F78FB9F8
:101E5C00834201D3724508D8BEEB020460EB030346
:101E6C0001209C461EB9002168E73846FAE7C6E90E
:101E7C00004CF8E7C7F1200CBB4022FA0CF41C43D1
:101E8C002EFA0CF120FA0CF3B84001434FEA144936
:101E9C000EFA07F5B3FBF9F81FFA84FE09FB1830AC
:101EAC000B0C08FB0EFA43EA00439A4502FA07F2C0
:101EBC0040D9E31808F1FF3004D29A4502D9A8F1B1
:101ECC0002002344A3EB0A0389B2B3FBF9F809FB24
:101EDC00183308FB0EFE41EA03418E452CD96118DC
:101EEC0008F1FF3304D28E4502D9A8F10203214434
:101EFC0043EA0040A0FB0298A1EB0E014145CE46FF
:101F0C00434602D306D14D4504D2B9EB020E68EB21
:101F1C0004030138002EA6D0B5EB0E0261EB0301D1
:101F2C0001FA0CFC22FA07F34CEA0303F940C6E968
:101F3C00003198E74046C5E74346D9E7F8B500BFFE
:101F4C00F8BC08BC9E467047F8B500BFF8BC08BC8E
:041F5C009E467047E6
:101F60000000000001020304000000000000000067
:081F7000010203040607080941
:081F780030FDFF7F01000000B5
:041F8000050200084E
:041F8400E10100086F
:0C1F880001000000100000000024F40024
:0400000508001BFDD7
:00000001FF
